{
  "_format": "hh-sol-artifact-1",
  "contractName": "RedStoneTransparentUpgradeableProxyPrimaryDemo",
  "sourceName": "contracts/RedStoneTransparentUpgradeableProxyPrimaryDemo.sol",
  "abi": [
    {
      "inputs": [
        {
          "internalType": "address",
          "name": "_logic",
          "type": "address"
        },
        {
          "internalType": "address",
          "name": "admin_",
          "type": "address"
        },
        {
          "internalType": "bytes",
          "name": "_data",
          "type": "bytes"
        }
      ],
      "stateMutability": "nonpayable",
      "type": "constructor"
    },
    {
      "inputs": [],
      "name": "CalldataMustHaveValidPayload",
      "type": "error"
    },
    {
      "inputs": [],
      "name": "CalldataOverOrUnderFlow",
      "type": "error"
    },
    {
      "inputs": [],
      "name": "CanNotPickMedianOfEmptyArray",
      "type": "error"
    },
    {
      "inputs": [],
      "name": "DataPackageTimestampMustNotBeZero",
      "type": "error"
    },
    {
      "inputs": [],
      "name": "DataPackageTimestampsMustBeEqual",
      "type": "error"
    },
    {
      "inputs": [],
      "name": "EachSignerMustProvideTheSameValue",
      "type": "error"
    },
    {
      "inputs": [],
      "name": "EmptyCalldataPointersArr",
      "type": "error"
    },
    {
      "inputs": [],
      "name": "GetDataServiceIdNotImplemented",
      "type": "error"
    },
    {
      "inputs": [
        {
          "internalType": "string",
          "name": "message",
          "type": "string"
        },
        {
          "internalType": "address",
          "name": "redStonePriceExtractor",
          "type": "address"
        },
        {
          "internalType": "uint256",
          "name": "redStonePayloadLength",
          "type": "uint256"
        },
        {
          "internalType": "uint256",
          "name": "msgDataLength",
          "type": "uint256"
        }
      ],
      "name": "IncorrectRedStonePayloadLength",
      "type": "error"
    },
    {
      "inputs": [],
      "name": "IncorrectUnsignedMetadataSize",
      "type": "error"
    },
    {
      "inputs": [
        {
          "internalType": "uint256",
          "name": "receivedSignersCount",
          "type": "uint256"
        },
        {
          "internalType": "uint256",
          "name": "requiredSignersCount",
          "type": "uint256"
        }
      ],
      "name": "InsufficientNumberOfUniqueSigners",
      "type": "error"
    },
    {
      "inputs": [],
      "name": "InvalidCalldataPointer",
      "type": "error"
    },
    {
      "inputs": [],
      "name": "RedstonePayloadMustHaveAtLeastOneDataPackage",
      "type": "error"
    },
    {
      "inputs": [
        {
          "internalType": "address",
          "name": "receivedSigner",
          "type": "address"
        }
      ],
      "name": "SignerNotAuthorised",
      "type": "error"
    },
    {
      "inputs": [
        {
          "internalType": "uint256",
          "name": "receivedTimestampSeconds",
          "type": "uint256"
        },
        {
          "internalType": "uint256",
          "name": "blockTimestamp",
          "type": "uint256"
        }
      ],
      "name": "TimestampFromTooLongFuture",
      "type": "error"
    },
    {
      "inputs": [
        {
          "internalType": "uint256",
          "name": "receivedTimestampSeconds",
          "type": "uint256"
        },
        {
          "internalType": "uint256",
          "name": "blockTimestamp",
          "type": "uint256"
        }
      ],
      "name": "TimestampIsTooOld",
      "type": "error"
    },
    {
      "anonymous": false,
      "inputs": [
        {
          "indexed": false,
          "internalType": "address",
          "name": "previousAdmin",
          "type": "address"
        },
        {
          "indexed": false,
          "internalType": "address",
          "name": "newAdmin",
          "type": "address"
        }
      ],
      "name": "AdminChanged",
      "type": "event"
    },
    {
      "anonymous": false,
      "inputs": [
        {
          "indexed": true,
          "internalType": "address",
          "name": "beacon",
          "type": "address"
        }
      ],
      "name": "BeaconUpgraded",
      "type": "event"
    },
    {
      "anonymous": false,
      "inputs": [
        {
          "indexed": false,
          "internalType": "string",
          "name": "message",
          "type": "string"
        },
        {
          "indexed": false,
          "internalType": "address",
          "name": "redStonePriceExtractor",
          "type": "address"
        },
        {
          "indexed": false,
          "internalType": "uint256",
          "name": "redStonePayloadLength",
          "type": "uint256"
        },
        {
          "indexed": false,
          "internalType": "uint256",
          "name": "msgDataLength",
          "type": "uint256"
        },
        {
          "indexed": false,
          "internalType": "bool",
          "name": "delegatedCallResult",
          "type": "bool"
        },
        {
          "indexed": false,
          "internalType": "bytes",
          "name": "_calldata",
          "type": "bytes"
        },
        {
          "indexed": false,
          "internalType": "bytes",
          "name": "_redStonePayload",
          "type": "bytes"
        },
        {
          "indexed": false,
          "internalType": "bytes",
          "name": "delegatedReturnedData",
          "type": "bytes"
        }
      ],
      "name": "FailedInjectedExtraction",
      "type": "event"
    },
    {
      "anonymous": false,
      "inputs": [
        {
          "indexed": false,
          "internalType": "address",
          "name": "nonUpgradeableContract",
          "type": "address"
        },
        {
          "indexed": false,
          "internalType": "bytes[]",
          "name": "args",
          "type": "bytes[]"
        },
        {
          "indexed": false,
          "internalType": "string",
          "name": "message",
          "type": "string"
        }
      ],
      "name": "MigratedFromNonUpgradeableContract",
      "type": "event"
    },
    {
      "anonymous": false,
      "inputs": [
        {
          "indexed": true,
          "internalType": "address",
          "name": "implementation",
          "type": "address"
        }
      ],
      "name": "Upgraded",
      "type": "event"
    },
    {
      "stateMutability": "payable",
      "type": "fallback"
    },
    {
      "inputs": [],
      "name": "_autoSetRedStonePayloadLength",
      "outputs": [],
      "stateMutability": "nonpayable",
      "type": "function"
    },
    {
      "inputs": [],
      "name": "_getRedStonePayloadLength",
      "outputs": [
        {
          "internalType": "uint256",
          "name": "",
          "type": "uint256"
        }
      ],
      "stateMutability": "view",
      "type": "function"
    },
    {
      "inputs": [],
      "name": "_getRedstonePriceExtractor",
      "outputs": [
        {
          "internalType": "address",
          "name": "",
          "type": "address"
        }
      ],
      "stateMutability": "view",
      "type": "function"
    },
    {
      "inputs": [
        {
          "internalType": "address",
          "name": "redStonePriceExtractor",
          "type": "address"
        }
      ],
      "name": "_setRedStonePriceExtractor",
      "outputs": [],
      "stateMutability": "nonpayable",
      "type": "function"
    },
    {
      "inputs": [],
      "name": "admin",
      "outputs": [
        {
          "internalType": "address",
          "name": "",
          "type": "address"
        }
      ],
      "stateMutability": "view",
      "type": "function"
    },
    {
      "inputs": [
        {
          "internalType": "uint256[]",
          "name": "values",
          "type": "uint256[]"
        }
      ],
      "name": "aggregateValues",
      "outputs": [
        {
          "internalType": "uint256",
          "name": "",
          "type": "uint256"
        }
      ],
      "stateMutability": "view",
      "type": "function"
    },
    {
      "inputs": [],
      "name": "extractTimestampsAndAssertAllAreEqual",
      "outputs": [
        {
          "internalType": "uint256",
          "name": "extractedTimestamp",
          "type": "uint256"
        }
      ],
      "stateMutability": "pure",
      "type": "function"
    },
    {
      "inputs": [
        {
          "internalType": "address",
          "name": "signerAddress",
          "type": "address"
        }
      ],
      "name": "getAuthorisedSignerIndex",
      "outputs": [
        {
          "internalType": "uint8",
          "name": "",
          "type": "uint8"
        }
      ],
      "stateMutability": "view",
      "type": "function"
    },
    {
      "inputs": [],
      "name": "getDataServiceId",
      "outputs": [
        {
          "internalType": "string",
          "name": "",
          "type": "string"
        }
      ],
      "stateMutability": "view",
      "type": "function"
    },
    {
      "inputs": [],
      "name": "getUniqueSignersThreshold",
      "outputs": [
        {
          "internalType": "uint8",
          "name": "",
          "type": "uint8"
        }
      ],
      "stateMutability": "view",
      "type": "function"
    },
    {
      "inputs": [
        {
          "internalType": "address",
          "name": "nonUpgradeableContract",
          "type": "address"
        },
        {
          "internalType": "bytes[]",
          "name": "args",
          "type": "bytes[]"
        }
      ],
      "name": "migrateFromNonUpgradeableContract",
      "outputs": [],
      "stateMutability": "nonpayable",
      "type": "function"
    },
    {
      "inputs": [
        {
          "internalType": "uint256",
          "name": "receivedTimestampMilliseconds",
          "type": "uint256"
        }
      ],
      "name": "validateTimestamp",
      "outputs": [],
      "stateMutability": "view",
      "type": "function"
    },
    {
      "stateMutability": "payable",
      "type": "receive"
    }
  ],
  "bytecode": "0x60806040523480156200001157600080fd5b506040516200214f3803806200214f833981016040819052620000349162000438565b8282828281620000478282600062000061565b506200005590508262000093565b5050505050506200056b565b6200006c8362000105565b6000825111806200007a5750805b156200008e576200008c838362000147565b505b505050565b7f7e644d79422f17c01e4894b5f4f588d331ebfa28653d42ae832dc59e38c9798f620000d560008051602062002108833981519152546001600160a01b031690565b604080516001600160a01b03928316815291841660208301520160405180910390a1620001028162000176565b50565b620001108162000214565b6040516001600160a01b038216907fbc7cd75a20ee27fd9adebab32041f755214dbc6bffa90cc0225b39da2e5c2d3b90600090a250565b60606200016f83836040518060600160405280602781526020016200212860279139620002ab565b9392505050565b6001600160a01b038116620001e15760405162461bcd60e51b815260206004820152602660248201527f455243313936373a206e65772061646d696e20697320746865207a65726f206160448201526564647265737360d01b60648201526084015b60405180910390fd5b80600080516020620021088339815191525b80546001600160a01b0319166001600160a01b039290921691909117905550565b6001600160a01b0381163b620002835760405162461bcd60e51b815260206004820152602d60248201527f455243313936373a206e657720696d706c656d656e746174696f6e206973206e60448201526c1bdd08184818dbdb9d1c9858dd609a1b6064820152608401620001d8565b807f360894a13ba1a3210667c828492db98dca3e2076cc3735a920a3ca505d382bbc620001f3565b6060600080856001600160a01b031685604051620002ca919062000518565b600060405180830381855af49150503d806000811462000307576040519150601f19603f3d011682016040523d82523d6000602084013e6200030c565b606091505b50909250905062000320868383876200032a565b9695505050505050565b606083156200039e57825160000362000396576001600160a01b0385163b620003965760405162461bcd60e51b815260206004820152601d60248201527f416464726573733a2063616c6c20746f206e6f6e2d636f6e74726163740000006044820152606401620001d8565b5081620003aa565b620003aa8383620003b2565b949350505050565b815115620003c35781518083602001fd5b8060405162461bcd60e51b8152600401620001d8919062000536565b80516001600160a01b0381168114620003f757600080fd5b919050565b634e487b7160e01b600052604160045260246000fd5b60005b838110156200042f57818101518382015260200162000415565b50506000910152565b6000806000606084860312156200044e57600080fd5b6200045984620003df565b92506200046960208501620003df565b60408501519092506001600160401b03808211156200048757600080fd5b818601915086601f8301126200049c57600080fd5b815181811115620004b157620004b1620003fc565b604051601f8201601f19908116603f01168101908382118183101715620004dc57620004dc620003fc565b81604052828152896020848701011115620004f657600080fd5b6200050983602083016020880162000412565b80955050505050509250925092565b600082516200052c81846020870162000412565b9190910192915050565b60208152600082518060208401526200055781604085016020870162000412565b601f01601f19169190910160400192915050565b611b8d806200057b6000396000f3fe6080604052600436106100ab5760003560e01c8063b4ff618711610064578063b4ff61871461019e578063c274583a146101cb578063ea33febe1461020f578063f50b2efe14610224578063f851a44014610244578063f90c492414610259576100ba565b80633ce142f5146100c257806355a547d5146100f9578063660376df1461011c578063a187a6171461013c578063b0dc6b0d1461015e578063b24ebfcc1461017e576100ba565b366100ba576100b861026d565b005b6100b861026d565b3480156100ce57600080fd5b506100e26100dd3660046113e5565b6103bf565b60405160ff90911681526020015b60405180910390f35b34801561010557600080fd5b5061010e61043d565b6040519081526020016100f0565b34801561012857600080fd5b506100b86101373660046113e5565b610555565b34801561014857600080fd5b50600080516020611a798339815191525461010e565b34801561016a57600080fd5b506100b86101793660046114dd565b610626565b34801561018a57600080fd5b5061010e6101993660046115a8565b6107f4565b3480156101aa57600080fd5b506101b3610805565b6040516001600160a01b0390911681526020016100f0565b3480156101d757600080fd5b50604080518082018252601581527472656473746f6e652d7072696d6172792d64656d6f60581b602082015290516100f09190611689565b34801561021b57600080fd5b506100b8610838565b34801561023057600080fd5b506100b861023f36600461169c565b61087d565b34801561025057600080fd5b506101b3610889565b34801561026557600080fd5b5060016100e2565b610275610898565b6001600160a01b031633036103b55760606001600160e01b0319600035166364d3180d60e11b81016102b0576102a96108c0565b91506103ad565b63587086bd60e11b6001600160e01b03198216016102d0576102a9610917565b63070d7c6960e41b6001600160e01b03198216016102f0576102a961095d565b621eb96f60e61b6001600160e01b031982160161030f576102a961098e565b63a39f25e560e01b6001600160e01b031982160161032f576102a96109ce565b60405162461bcd60e51b815260206004820152604260248201527f5472616e73706172656e745570677261646561626c6550726f78793a2061646d60448201527f696e2063616e6e6f742066616c6c6261636b20746f2070726f78792074617267606482015261195d60f21b608482015260a4015b60405180910390fd5b815160208301f35b6103bd6109e2565b565b60006001600160a01b03821673de13fdee7a9b483129a81794d02fcb4021069f0c036103ed57506000919050565b6001600160a01b03821673ad05ce43e0bcd11345f08a28995951dec30d52260361041957506001919050565b6040516303b1166f60e61b81526001600160a01b03831660048201526024016103a4565b6000806104486109f2565b9050600061045582610aa0565b61ffff1690508060000361047c57604051632154bfcf60e21b815260040160405180910390fd5b6104876002836116cb565b915060005b8181101561054f57600061049f84610ada565b90506000806104af6068876116cb565b905060006104bd82366116de565b9050803592508265ffffffffffff166000036104ec57604051630336dc9d60e41b815260040160405180910390fd5b87600003610504578265ffffffffffff16975061052c565b878365ffffffffffff161461052c5760405163d9d1f46560e01b815260040160405180910390fd5b61053684886116cb565b9650505050508080610547906116f1565b91505061048c565b50505090565b61055d610889565b6001600160a01b0316336001600160a01b03161461057a57600080fd5b6001600160a01b0381163b6105e25760405162461bcd60e51b815260206004820152602860248201527f72656453746f6e655072696365457874726163746f72206973206e6f7420612060448201526718dbdb9d1c9858dd60c21b60648201526084016103a4565b807fc4ff2e43c5439a0b50b5169661141171ada35af635a629a5048f96c7a3f701e65b80546001600160a01b0319166001600160a01b039290921691909117905550565b61062e610b16565b604080517ff01a3707d01753a887a82e3d456da3b48d768008b5d2f97fbd68310b61d5653d6020808301919091523360601b6001600160601b0319168284015282516034818403018152605490920190925280519101205460ff16156106f85760405162461bcd60e51b81526020600482015260456024820152600080516020611b3883398151915260448201527f6f78793a204d6967726174696f6e2068617320616c7265616479206265656e206064820152643237b7329760d91b608482015260a4016103a4565b60008060006107078585610dac565b9250925092508261074b57848260405160200161072592919061170a565b60408051601f198184030181529082905262461bcd60e51b82526103a491600401611689565b7f2584806858f7520710ac3fcee06a79a1b47dde2109f4a393da38163b6765a6ac85858360405161077e9392919061179a565b60405180910390a16107ed604080517ff01a3707d01753a887a82e3d456da3b48d768008b5d2f97fbd68310b61d5653d6020808301919091526001600160601b03193360601b16828401528251808303603401815260549092019092528051910120805460ff19166001179055565b5050505050565b60006107ff82610e3b565b92915050565b60007fc4ff2e43c5439a0b50b5169661141171ada35af635a629a5048f96c7a3f701e65b546001600160a01b0316919050565b610840610889565b6001600160a01b0316336001600160a01b03161461085d57600080fd5b600061086a6004366116de565b600080516020611a798339815191525550565b61088681610e46565b50565b6000610893610898565b905090565b60007fb53127684a568b3173ae13b9f8a6016e243e63b6e8ee1178d6a717850b5d6103610829565b60606108ca610eca565b60006108d93660048184611815565b8101906108e691906113e5565b905061090381604051806020016040528060008152506000610ed5565b505060408051602081019091526000815290565b60606000806109293660048184611815565b810190610936919061183f565b9150915061094682826001610ed5565b604051806020016040528060008152509250505090565b6060610967610eca565b60006109763660048184611815565b81019061098391906113e5565b905061090381610f01565b6060610998610eca565b60006109a2610898565b604080516001600160a01b03831660208201529192500160405160208183030381529060405291505090565b60606109d8610eca565b60006109a2610f55565b6103bd6109ed610f55565b610f5f565b60006602ed57011e0000601f1936013581161480610a23576040516373bb264f60e11b815260040160405180910390fd5b60003660291115610a4757604051632bcb7bc560e11b815260040160405180910390fd5b5060281936013560006009610a62600362ffffff85166116cb565b610a6c91906116cb565b905036610a7a6002836116cb565b1115610a995760405163c30a7bd760e01b815260040160405180910390fd5b9392505050565b600080610aae6020846116cb565b905036811115610ad157604051632bcb7bc560e11b815260040160405180910390fd5b36033592915050565b6000806000610ae884610f8b565b9092509050604e610afa8260206116cb565b610b04908461188f565b610b0e91906116cb565b949350505050565b6000610b20610805565b90506001600160a01b0381161561088657600080516020611a7983398151915254600003610c0e5780610b5f600080516020611a798339815191525490565b60405163894fa41d60e01b81526080600482015260666084820152600080516020611b3883398151915260a48201527f6f78793a2052656453746f6e655072696365457874726163746f72206973207360c48201527f65742c2062757420746865207061796c6f6164206c656e677468206973206e6f60e4820152653a1039b2ba1760d11b6101048201526001600160a01b0390921660248301526044820152366064820152610124016103a4565b600080516020611a7983398151915254610c299060086116cb565b36106108865760008036610c49600080516020611a798339815191525490565b610c5390366116de565b610c5e928290611815565b8080601f01602080910402602001604051908101604052809392919081815260200183838082843760009201829052506040805160048152602481018252602080820180516001600160e01b031663c4d51c7160e01b179052915196975095919450610cd093508592508691016118a6565b6040516020818303038152906040529050600080856001600160a01b031683604051610cfc91906118d5565b6000604051808303816000865af19150503d8060008114610d39576040519150601f19603f3d011682016040523d82523d6000602084013e610d3e565b606091505b509150915081610da4577fe8b6097431169072a35ab6a2c70382c59d983ef799126efd9bbbcd9c89d659e186610d80600080516020611a798339815191525490565b604051610d9b9291903690879060009083908d908a9061191a565b60405180910390a15b505050505050565b60006060806001925084604051602001610e0e91907f4578616d706c652072657475726e2064617461206f66204d6967726174696f6e815265206c6f67696360d01b602082015260609190911b6001600160601b0319166026820152603a0190565b60408051601f1981840301815260c08301909152609f808352909350611a99602083013990509250925092565b60006107ff82610fe2565b6000610e546103e883611a13565b905080421015610e9657603c610e6a42836116de565b1115610e925760405163b6b0916d60e01b8152600481018290524260248201526044016103a4565b5050565b60b4610ea282426116de565b1115610e9257604051630321d0b560e01b8152600481018290524260248201526044016103a4565b34156103bd57600080fd5b610ede836110ad565b600082511180610eeb5750805b15610efc57610efa83836110ed565b505b505050565b7f7e644d79422f17c01e4894b5f4f588d331ebfa28653d42ae832dc59e38c9798f610f2a610898565b604080516001600160a01b03928316815291841660208301520160405180910390a161088681611112565b600061089361119e565b610f67610b16565b3660008037600080366000845af43d6000803e808015610f86573d6000f35b3d6000fd5b600080808080610f9c6041876116cb565b90506000610fb5610fae6020846116cb565b36906111c6565b803594509050610fc68160036111c6565b62ffffff9490941697933563ffffffff16965092945050505050565b6000815160000361100657604051639e198af960e01b815260040160405180910390fd5b61100f826111d2565b60006002835161101f9190611a13565b90506002835161102f9190611a27565b60000361108b57600061107e846110476001856116de565b8151811061105757611057611a3b565b602002602001015185848151811061107157611071611a3b565b602002602001015161121a565b9050610b0e600282611a13565b82818151811061109d5761109d611a3b565b6020026020010151915050919050565b6110b681611226565b6040516001600160a01b038216907fbc7cd75a20ee27fd9adebab32041f755214dbc6bffa90cc0225b39da2e5c2d3b90600090a250565b6060610a998383604051806060016040528060278152602001611a52602791396112ba565b6001600160a01b0381166111775760405162461bcd60e51b815260206004820152602660248201527f455243313936373a206e65772061646d696e20697320746865207a65726f206160448201526564647265737360d01b60648201526084016103a4565b807fb53127684a568b3173ae13b9f8a6016e243e63b6e8ee1178d6a717850b5d6103610605565b60007f360894a13ba1a3210667c828492db98dca3e2076cc3735a920a3ca505d382bbc610829565b6000610a9982846116de565b8051602082016020820281019150805b82811015610efa57815b81811015611211578151815180821015611207578084528183525b50506020016111ec565b506020016111e2565b6000610a9982846116cb565b6001600160a01b0381163b6112935760405162461bcd60e51b815260206004820152602d60248201527f455243313936373a206e657720696d706c656d656e746174696f6e206973206e60448201526c1bdd08184818dbdb9d1c9858dd609a1b60648201526084016103a4565b807f360894a13ba1a3210667c828492db98dca3e2076cc3735a920a3ca505d382bbc610605565b6060600080856001600160a01b0316856040516112d791906118d5565b600060405180830381855af49150503d8060008114611312576040519150601f19603f3d011682016040523d82523d6000602084013e611317565b606091505b509150915061132886838387611332565b9695505050505050565b606083156113a157825160000361139a576001600160a01b0385163b61139a5760405162461bcd60e51b815260206004820152601d60248201527f416464726573733a2063616c6c20746f206e6f6e2d636f6e747261637400000060448201526064016103a4565b5081610b0e565b610b0e83838151156113b65781518083602001fd5b8060405162461bcd60e51b81526004016103a49190611689565b6001600160a01b038116811461088657600080fd5b6000602082840312156113f757600080fd5b8135610a99816113d0565b634e487b7160e01b600052604160045260246000fd5b604051601f8201601f1916810167ffffffffffffffff8111828210171561144157611441611402565b604052919050565b600067ffffffffffffffff82111561146357611463611402565b5060051b60200190565b600082601f83011261147e57600080fd5b813567ffffffffffffffff81111561149857611498611402565b6114ab601f8201601f1916602001611418565b8181528460208386010111156114c057600080fd5b816020850160208301376000918101602001919091529392505050565b600080604083850312156114f057600080fd5b82356114fb816113d0565b915060208381013567ffffffffffffffff8082111561151957600080fd5b818601915086601f83011261152d57600080fd5b813561154061153b82611449565b611418565b81815260059190911b8301840190848101908983111561155f57600080fd5b8585015b838110156115975780358581111561157b5760008081fd5b6115898c89838a010161146d565b845250918601918601611563565b508096505050505050509250929050565b600060208083850312156115bb57600080fd5b823567ffffffffffffffff8111156115d257600080fd5b8301601f810185136115e357600080fd5b80356115f161153b82611449565b81815260059190911b8201830190838101908783111561161057600080fd5b928401925b8284101561162e57833582529284019290840190611615565b979650505050505050565b60005b8381101561165457818101518382015260200161163c565b50506000910152565b60008151808452611675816020860160208601611639565b601f01601f19169290920160200192915050565b602081526000610a99602083018461165d565b6000602082840312156116ae57600080fd5b5035919050565b634e487b7160e01b600052601160045260246000fd5b808201808211156107ff576107ff6116b5565b818103818111156107ff576107ff6116b5565b600060018201611703576117036116b5565b5060010190565b600080516020611b3883398151915281527f6f78793a204d6967726174696f6e206661696c6564206174200000000000000060208201526bffffffffffffffffffffffff198360601b166039820152740103bb4ba341032b93937b91036b2b9b9b0b3b29d1605d1b604d8201526000825161178c816062850160208701611639565b919091016062019392505050565b60006060820160018060a01b0386168352602060608185015281865180845260808601915060808160051b870101935082880160005b828110156117fe57607f198887030184526117ec86835161165d565b955092840192908401906001016117d0565b50505050508281036040840152611328818561165d565b6000808585111561182557600080fd5b8386111561183257600080fd5b5050820193919092039150565b6000806040838503121561185257600080fd5b823561185d816113d0565b9150602083013567ffffffffffffffff81111561187957600080fd5b6118858582860161146d565b9150509250929050565b80820281158282048414176107ff576107ff6116b5565b600083516118b8818460208801611639565b8351908301906118cc818360208801611639565b01949350505050565b600082516118e7818460208701611639565b9190910192915050565b81835281816020850137506000828201602090810191909152601f909101601f19169091010190565b610100808252605a90820152600080516020611b388339815191526101208201527f6f78793a20496e6a65637465642065787472616374696f6e206661696c6564206101408201527f61742052656453746f6e655072696365457874726163746f722e0000000000006101608201526001600160a01b03891660208201526040810188905260608101879052851515608082015260006101808060a08401526119c681840187896118f1565b905082810360c08401526119da818661165d565b905082810360e08401526119ee818561165d565b9b9a5050505050505050505050565b634e487b7160e01b600052601260045260246000fd5b600082611a2257611a226119fd565b500490565b600082611a3657611a366119fd565b500690565b634e487b7160e01b600052603260045260246000fdfe416464726573733a206c6f772d6c6576656c2064656c65676174652063616c6c206661696c6564992c3240af1124d7e0e7d96dd0848ed3280961e23ee388c07e753c02b672143752656453746f6e655472616e73706172656e745570677261646561626c6550726f78793a204d6967726174696f6e207375636365656465642c2062757420746865206d6967726174696f6e206c6f67696320686173206e6f74206265656e20696d706c656d656e74656420617320697420776173206e6f74206f766572726964656e2c20736f206e6f7468696e67207265616c6c792068617070656e65642e52656453746f6e655472616e73706172656e745570677261646561626c655072a2646970667358221220fa2beb8f8da3ee78041afef3ef56a9f080795e523fc85286bb121e5eb26eab0e64736f6c63430008150033b53127684a568b3173ae13b9f8a6016e243e63b6e8ee1178d6a717850b5d6103416464726573733a206c6f772d6c6576656c2064656c65676174652063616c6c206661696c6564",
  "linkReferences": {},
  "deployedLinkReferences": {}
}