{
  "_format": "hh-sol-artifact-1",
  "contractName": "PrimaryDemoDataServiceConsumerBase",
  "sourceName": "@redstone-finance/evm-connector/contracts/data-services/PrimaryDemoDataServiceConsumerBase.sol",
  "abi": [
    {
      "inputs": [],
      "name": "CalldataMustHaveValidPayload",
      "type": "error"
    },
    {
      "inputs": [],
      "name": "CalldataOverOrUnderFlow",
      "type": "error"
    },
    {
      "inputs": [],
      "name": "CanNotPickMedianOfEmptyArray",
      "type": "error"
    },
    {
      "inputs": [],
      "name": "DataPackageTimestampMustNotBeZero",
      "type": "error"
    },
    {
      "inputs": [],
      "name": "DataPackageTimestampsMustBeEqual",
      "type": "error"
    },
    {
      "inputs": [],
      "name": "EachSignerMustProvideTheSameValue",
      "type": "error"
    },
    {
      "inputs": [],
      "name": "EmptyCalldataPointersArr",
      "type": "error"
    },
    {
      "inputs": [],
      "name": "GetDataServiceIdNotImplemented",
      "type": "error"
    },
    {
      "inputs": [],
      "name": "IncorrectUnsignedMetadataSize",
      "type": "error"
    },
    {
      "inputs": [
        {
          "internalType": "uint256",
          "name": "receivedSignersCount",
          "type": "uint256"
        },
        {
          "internalType": "uint256",
          "name": "requiredSignersCount",
          "type": "uint256"
        }
      ],
      "name": "InsufficientNumberOfUniqueSigners",
      "type": "error"
    },
    {
      "inputs": [],
      "name": "InvalidCalldataPointer",
      "type": "error"
    },
    {
      "inputs": [],
      "name": "RedstonePayloadMustHaveAtLeastOneDataPackage",
      "type": "error"
    },
    {
      "inputs": [
        {
          "internalType": "address",
          "name": "receivedSigner",
          "type": "address"
        }
      ],
      "name": "SignerNotAuthorised",
      "type": "error"
    },
    {
      "inputs": [
        {
          "internalType": "uint256",
          "name": "receivedTimestampSeconds",
          "type": "uint256"
        },
        {
          "internalType": "uint256",
          "name": "blockTimestamp",
          "type": "uint256"
        }
      ],
      "name": "TimestampFromTooLongFuture",
      "type": "error"
    },
    {
      "inputs": [
        {
          "internalType": "uint256",
          "name": "receivedTimestampSeconds",
          "type": "uint256"
        },
        {
          "internalType": "uint256",
          "name": "blockTimestamp",
          "type": "uint256"
        }
      ],
      "name": "TimestampIsTooOld",
      "type": "error"
    },
    {
      "inputs": [
        {
          "internalType": "uint256[]",
          "name": "values",
          "type": "uint256[]"
        }
      ],
      "name": "aggregateValues",
      "outputs": [
        {
          "internalType": "uint256",
          "name": "",
          "type": "uint256"
        }
      ],
      "stateMutability": "view",
      "type": "function"
    },
    {
      "inputs": [],
      "name": "extractTimestampsAndAssertAllAreEqual",
      "outputs": [
        {
          "internalType": "uint256",
          "name": "extractedTimestamp",
          "type": "uint256"
        }
      ],
      "stateMutability": "pure",
      "type": "function"
    },
    {
      "inputs": [
        {
          "internalType": "address",
          "name": "signerAddress",
          "type": "address"
        }
      ],
      "name": "getAuthorisedSignerIndex",
      "outputs": [
        {
          "internalType": "uint8",
          "name": "",
          "type": "uint8"
        }
      ],
      "stateMutability": "view",
      "type": "function"
    },
    {
      "inputs": [],
      "name": "getDataServiceId",
      "outputs": [
        {
          "internalType": "string",
          "name": "",
          "type": "string"
        }
      ],
      "stateMutability": "view",
      "type": "function"
    },
    {
      "inputs": [],
      "name": "getUniqueSignersThreshold",
      "outputs": [
        {
          "internalType": "uint8",
          "name": "",
          "type": "uint8"
        }
      ],
      "stateMutability": "view",
      "type": "function"
    },
    {
      "inputs": [
        {
          "internalType": "uint256",
          "name": "receivedTimestampMilliseconds",
          "type": "uint256"
        }
      ],
      "name": "validateTimestamp",
      "outputs": [],
      "stateMutability": "view",
      "type": "function"
    }
  ],
  "bytecode": "0x608060405234801561001057600080fd5b5061085a806100206000396000f3fe608060405234801561001057600080fd5b50600436106100625760003560e01c80633ce142f51461006757806355a547d514610091578063b24ebfcc146100a7578063c274583a146100ba578063f50b2efe146100f1578063f90c492414610106575b600080fd5b61007a610075366004610600565b61010d565b60405160ff90911681526020015b60405180910390f35b610099610190565b604051908152602001610088565b6100996100b536600461063f565b6102a8565b604080518082018252601581527472656473746f6e652d7072696d6172792d64656d6f60581b6020820152905161008891906106fd565b6101046100ff36600461074b565b6102b9565b005b600161007a565b60006001600160a01b03821673de13fdee7a9b483129a81794d02fcb4021069f0c0361013b57506000919050565b6001600160a01b03821673ad05ce43e0bcd11345f08a28995951dec30d52260361016757506001919050565b6040516303b1166f60e61b81526001600160a01b03831660048201526024015b60405180910390fd5b60008061019b6102c5565b905060006101a882610373565b61ffff169050806000036101cf57604051632154bfcf60e21b815260040160405180910390fd5b6101da60028361077a565b915060005b818110156102a25760006101f2846103ad565b905060008061020260688761077a565b90506000610210823661078d565b9050803592508265ffffffffffff1660000361023f57604051630336dc9d60e41b815260040160405180910390fd5b87600003610257578265ffffffffffff16975061027f565b878365ffffffffffff161461027f5760405163d9d1f46560e01b815260040160405180910390fd5b610289848861077a565b965050505050808061029a906107a0565b9150506101df565b50505090565b60006102b3826103e9565b92915050565b6102c2816103f4565b50565b60006602ed57011e0000601f19360135811614806102f6576040516373bb264f60e11b815260040160405180910390fd5b6000366029111561031a57604051632bcb7bc560e11b815260040160405180910390fd5b5060281936013560006009610335600362ffffff851661077a565b61033f919061077a565b90503661034d60028361077a565b111561036c5760405163c30a7bd760e01b815260040160405180910390fd5b9392505050565b60008061038160208461077a565b9050368111156103a457604051632bcb7bc560e11b815260040160405180910390fd5b36033592915050565b60008060006103bb84610478565b9092509050604e6103cd82602061077a565b6103d790846107b9565b6103e1919061077a565b949350505050565b60006102b3826104cf565b60006104026103e8836107e6565b90508042101561044457603c610418428361078d565b11156104405760405163b6b0916d60e01b815260048101829052426024820152604401610187565b5050565b60b4610450824261078d565b111561044057604051630321d0b560e01b815260048101829052426024820152604401610187565b60008080808061048960418761077a565b905060006104a261049b60208461077a565b369061059a565b8035945090506104b381600361059a565b62ffffff9490941697933563ffffffff16965092945050505050565b600081516000036104f357604051639e198af960e01b815260040160405180910390fd5b6104fc826105a6565b60006002835161050c91906107e6565b90506002835161051c91906107fa565b60000361057857600061056b8461053460018561078d565b815181106105445761054461080e565b602002602001015185848151811061055e5761055e61080e565b60200260200101516105f4565b90506103e16002826107e6565b82818151811061058a5761058a61080e565b6020026020010151915050919050565b600061036c828461078d565b8051602082016020820281019150805b828110156105ee57815b818110156105e55781518151808210156105db578084528183525b50506020016105c0565b506020016105b6565b50505050565b600061036c828461077a565b60006020828403121561061257600080fd5b81356001600160a01b038116811461036c57600080fd5b634e487b7160e01b600052604160045260246000fd5b6000602080838503121561065257600080fd5b823567ffffffffffffffff8082111561066a57600080fd5b818501915085601f83011261067e57600080fd5b81358181111561069057610690610629565b8060051b604051601f19603f830116810181811085821117156106b5576106b5610629565b6040529182528482019250838101850191888311156106d357600080fd5b938501935b828510156106f1578435845293850193928501926106d8565b98975050505050505050565b600060208083528351808285015260005b8181101561072a5785810183015185820160400152820161070e565b506000604082860101526040601f19601f8301168501019250505092915050565b60006020828403121561075d57600080fd5b5035919050565b634e487b7160e01b600052601160045260246000fd5b808201808211156102b3576102b3610764565b818103818111156102b3576102b3610764565b6000600182016107b2576107b2610764565b5060010190565b80820281158282048414176102b3576102b3610764565b634e487b7160e01b600052601260045260246000fd5b6000826107f5576107f56107d0565b500490565b600082610809576108096107d0565b500690565b634e487b7160e01b600052603260045260246000fdfea26469706673582212204c7f4cc8aa363c4e13010c018fab41a0c5163f11227413257a91ac5102ae530b64736f6c63430008150033",
  "linkReferences": {},
  "deployedLinkReferences": {}
}